:020000020000fc
:0100000000ff
:0100010002fc
:0100020002fb
:0100030003f9
:0100040000fb
:0100050003f7
:0100060000f9
:0100070001f7
:0100080003f4
:0100090001f5
:01000a0000f5
:01000b0001f3
:01000c0000f3
:01000d0000f2
:01000e0003ee
:01000f0000f0
:0100100002ed
:0100110001ed
:0100120000ed
:0100130000ec
:0100140000eb
:0100150001e9
:0100160001e8
:0100170002e6
:0100180002e5
:0100190003e3
:01001a0003e2
:01001b0002e2
:01001c0002e1
:01001d0002e0
:01001e0001e0
:01001f0002de
:0100200002dd
:0100210000de
:0100220002db
:0100230000dc
:0100240000db
:0100250002d8
:0100260003d6
:0100270001d7
:0100280000d7
:0100290000d6
:01002a0000d5
:01002b0003d1
:01002c0002d1
:01002d0003cf
:01002e0001d0
:01002f0001cf
:0100300003cc
:0100310003cb
:0100320001cc
:0100330003c9
:0100340003c8
:0100350002c8
:0100360001c8
:0100370002c6
:0100380003c4
:0100390000c6
:01003a0001c4
:01003b0002c2
:01003c0003c0
:01003d0003bf
:01003e0003be
:01003f0003bd
:0100400001be
:0100410002bc
:0100420000bd
:0100430003b9
:0100440002b9
:0100450003b7
:0100460003b6
:0100470001b7
:0100480002b5
:0100490000b6
:01004a0000b5
:01004b0001b3
:01004c0002b1
:01004d0002b0
:01004e0000b1
:01004f0000b0
:0100500001ae
:0100510001ad
:0100520002ab
:0100530001ab
:0100540001aa
:0100550002a8
:0100560001a8
:0100570002a6
:0100580002a5
:0100590000a6
:01005a0000a5
:01005b0003a1
:01005c0003a0
:01005d0002a0
:01005e00029f
:01005f00039d
:01006000009f
:01006100009e
:01006200029b
:010063000399
:010064000398
:010065000298
:010066000396
:010067000395
:010068000196
:010069000096
:01006a000392
:01006b000292
:01006c000192
:01006d000290
:01006e000190
:01006f000090
:01007000018e
:01007100008e
:01007200028b
:01007300008c
:010074000289
:010075000189
:010076000089
:010077000286
:010078000186
:010079000185
:01007a000184
:01007b000084
:01007c000182
:01007d000082
:01007e00037e
:01007f000080
:01008000037c
:01008100037b
:01008200007d
:01008300017b
:01008400017a
:010085000377
:010086000178
:010087000276
:010088000374
:010089000076
:01008a000273
:01008b000173
:01008c000073
:01008d000270
:01008e00026f
:01008f000070
:01009000026d
:01009100036b
:01009200036a
:010093000369
:01009400006b
:010095000367
:010096000267
:010097000266
:010098000067
:010099000066
:01009a000263
:01009b000064
:01009c000360
:01009d00035f
:01009e00035e
:01009f000060
:0100a000005f
:0100a100005e
:0100a200035a
:0100a300015b
:0100a4000358
:0100a5000159
:0100a6000059
:0100a7000157
:0100a8000354
:0100a9000056
:0100aa000352
:0100ab000153
:0100ac000251
:0100ad000250
:0100ae00024f
:0100af000050
:0100b000024d
:0100b100004e
:0100b200014c
:0100b300024a
:0100b4000348
:0100b500004a
:0100b6000148
:0100b7000048
:0100b8000344
:0100b9000046
:0100ba000342
:0100bb000044
:0100bc000241
:0100bd000042
:0100be000140
:0100bf00013f
:0100c000023d
:0100c100013d
:0100c200013c
:0100c3000339
:0100c400003b
:0100c5000337
:0100c6000336
:0100c7000038
:0100c8000334
:0100c9000234
:0100ca000233
:0100cb000133
:0100cc000033
:0100cd00032f
:0100ce00022f
:0100cf00012f
:0100d000002f
:0100d100012d
:0100d200022b
:0100d300022a
:0100d400002b
:0100d5000327
:0100d6000227
:0100d7000127
:0100d8000324
:0100d9000224
:0100da000322
:0100db000123
:0100dc000221
:0100dd000220
:0100de000021
:0100df000020
:0100e000021d
:0100e100001e
:0100e200021b
:0100e300021a
:0100e4000318
:0100e500001a
:0100e6000217
:0100e7000216
:0100e8000017
:0100e9000214
:0100ea000312
:0100eb000113
:0100ec000310
:0100ed000111
:0100ee000110
:0100ef00030d
:0100f000000f
:0100f100020c
:0100f200030a
:0100f300000c
:0100f400000b
:0100f5000307
:0100f6000306
:0100f7000305
:0100f8000205
:0100f9000006
:0100fa000302
:0100fb000004
:0100fc000300
:0100fd0003ff
:0100fe000100
:0100ff0003fd
:00000001FF
